{
  "_format": "hh-sol-artifact-1",
  "contractName": "SukhoiToken",
  "sourceName": "contracts/SukhoiToken.sol",
  "abi": [
    {
      "inputs": [
        {
          "internalType": "address",
          "name": "initialOwner",
          "type": "address"
        }
      ],
      "stateMutability": "nonpayable",
      "type": "constructor"
    },
    {
      "inputs": [
        {
          "internalType": "address",
          "name": "spender",
          "type": "address"
        },
        {
          "internalType": "uint256",
          "name": "allowance",
          "type": "uint256"
        },
        {
          "internalType": "uint256",
          "name": "needed",
          "type": "uint256"
        }
      ],
      "name": "ERC20InsufficientAllowance",
      "type": "error"
    },
    {
      "inputs": [
        {
          "internalType": "address",
          "name": "sender",
          "type": "address"
        },
        {
          "internalType": "uint256",
          "name": "balance",
          "type": "uint256"
        },
        {
          "internalType": "uint256",
          "name": "needed",
          "type": "uint256"
        }
      ],
      "name": "ERC20InsufficientBalance",
      "type": "error"
    },
    {
      "inputs": [
        {
          "internalType": "address",
          "name": "approver",
          "type": "address"
        }
      ],
      "name": "ERC20InvalidApprover",
      "type": "error"
    },
    {
      "inputs": [
        {
          "internalType": "address",
          "name": "receiver",
          "type": "address"
        }
      ],
      "name": "ERC20InvalidReceiver",
      "type": "error"
    },
    {
      "inputs": [
        {
          "internalType": "address",
          "name": "sender",
          "type": "address"
        }
      ],
      "name": "ERC20InvalidSender",
      "type": "error"
    },
    {
      "inputs": [
        {
          "internalType": "address",
          "name": "spender",
          "type": "address"
        }
      ],
      "name": "ERC20InvalidSpender",
      "type": "error"
    },
    {
      "inputs": [],
      "name": "EnforcedPause",
      "type": "error"
    },
    {
      "inputs": [],
      "name": "ExpectedPause",
      "type": "error"
    },
    {
      "inputs": [
        {
          "internalType": "address",
          "name": "owner",
          "type": "address"
        }
      ],
      "name": "OwnableInvalidOwner",
      "type": "error"
    },
    {
      "inputs": [
        {
          "internalType": "address",
          "name": "account",
          "type": "address"
        }
      ],
      "name": "OwnableUnauthorizedAccount",
      "type": "error"
    },
    {
      "anonymous": false,
      "inputs": [
        {
          "indexed": true,
          "internalType": "address",
          "name": "owner",
          "type": "address"
        },
        {
          "indexed": true,
          "internalType": "address",
          "name": "spender",
          "type": "address"
        },
        {
          "indexed": false,
          "internalType": "uint256",
          "name": "value",
          "type": "uint256"
        }
      ],
      "name": "Approval",
      "type": "event"
    },
    {
      "anonymous": false,
      "inputs": [
        {
          "indexed": true,
          "internalType": "address",
          "name": "from",
          "type": "address"
        },
        {
          "indexed": true,
          "internalType": "address",
          "name": "to",
          "type": "address"
        },
        {
          "indexed": false,
          "internalType": "uint256",
          "name": "amount",
          "type": "uint256"
        },
        {
          "indexed": false,
          "internalType": "string",
          "name": "message",
          "type": "string"
        },
        {
          "indexed": false,
          "internalType": "uint256",
          "name": "fee",
          "type": "uint256"
        }
      ],
      "name": "MessageSent",
      "type": "event"
    },
    {
      "anonymous": false,
      "inputs": [
        {
          "indexed": true,
          "internalType": "address",
          "name": "previousOwner",
          "type": "address"
        },
        {
          "indexed": true,
          "internalType": "address",
          "name": "newOwner",
          "type": "address"
        }
      ],
      "name": "OwnershipTransferred",
      "type": "event"
    },
    {
      "anonymous": false,
      "inputs": [
        {
          "indexed": false,
          "internalType": "address",
          "name": "account",
          "type": "address"
        }
      ],
      "name": "Paused",
      "type": "event"
    },
    {
      "anonymous": false,
      "inputs": [
        {
          "indexed": true,
          "internalType": "address",
          "name": "from",
          "type": "address"
        },
        {
          "indexed": true,
          "internalType": "address",
          "name": "to",
          "type": "address"
        },
        {
          "indexed": false,
          "internalType": "uint256",
          "name": "value",
          "type": "uint256"
        }
      ],
      "name": "Transfer",
      "type": "event"
    },
    {
      "anonymous": false,
      "inputs": [
        {
          "indexed": false,
          "internalType": "address",
          "name": "account",
          "type": "address"
        }
      ],
      "name": "Unpaused",
      "type": "event"
    },
    {
      "inputs": [
        {
          "internalType": "address",
          "name": "owner",
          "type": "address"
        },
        {
          "internalType": "address",
          "name": "spender",
          "type": "address"
        }
      ],
      "name": "allowance",
      "outputs": [
        {
          "internalType": "uint256",
          "name": "",
          "type": "uint256"
        }
      ],
      "stateMutability": "view",
      "type": "function"
    },
    {
      "inputs": [
        {
          "internalType": "address",
          "name": "spender",
          "type": "address"
        },
        {
          "internalType": "uint256",
          "name": "value",
          "type": "uint256"
        }
      ],
      "name": "approve",
      "outputs": [
        {
          "internalType": "bool",
          "name": "",
          "type": "bool"
        }
      ],
      "stateMutability": "nonpayable",
      "type": "function"
    },
    {
      "inputs": [
        {
          "internalType": "address",
          "name": "account",
          "type": "address"
        }
      ],
      "name": "balanceOf",
      "outputs": [
        {
          "internalType": "uint256",
          "name": "",
          "type": "uint256"
        }
      ],
      "stateMutability": "view",
      "type": "function"
    },
    {
      "inputs": [
        {
          "internalType": "uint256",
          "name": "value",
          "type": "uint256"
        }
      ],
      "name": "burn",
      "outputs": [],
      "stateMutability": "nonpayable",
      "type": "function"
    },
    {
      "inputs": [
        {
          "internalType": "address",
          "name": "account",
          "type": "address"
        },
        {
          "internalType": "uint256",
          "name": "value",
          "type": "uint256"
        }
      ],
      "name": "burnFrom",
      "outputs": [],
      "stateMutability": "nonpayable",
      "type": "function"
    },
    {
      "inputs": [],
      "name": "decimals",
      "outputs": [
        {
          "internalType": "uint8",
          "name": "",
          "type": "uint8"
        }
      ],
      "stateMutability": "view",
      "type": "function"
    },
    {
      "inputs": [],
      "name": "messageFee",
      "outputs": [
        {
          "internalType": "uint256",
          "name": "",
          "type": "uint256"
        }
      ],
      "stateMutability": "view",
      "type": "function"
    },
    {
      "inputs": [
        {
          "internalType": "address",
          "name": "to",
          "type": "address"
        },
        {
          "internalType": "uint256",
          "name": "amount",
          "type": "uint256"
        }
      ],
      "name": "mint",
      "outputs": [],
      "stateMutability": "nonpayable",
      "type": "function"
    },
    {
      "inputs": [],
      "name": "name",
      "outputs": [
        {
          "internalType": "string",
          "name": "",
          "type": "string"
        }
      ],
      "stateMutability": "view",
      "type": "function"
    },
    {
      "inputs": [],
      "name": "owner",
      "outputs": [
        {
          "internalType": "address",
          "name": "",
          "type": "address"
        }
      ],
      "stateMutability": "view",
      "type": "function"
    },
    {
      "inputs": [],
      "name": "pause",
      "outputs": [],
      "stateMutability": "nonpayable",
      "type": "function"
    },
    {
      "inputs": [],
      "name": "paused",
      "outputs": [
        {
          "internalType": "bool",
          "name": "",
          "type": "bool"
        }
      ],
      "stateMutability": "view",
      "type": "function"
    },
    {
      "inputs": [],
      "name": "renounceOwnership",
      "outputs": [],
      "stateMutability": "nonpayable",
      "type": "function"
    },
    {
      "inputs": [
        {
          "internalType": "address",
          "name": "to",
          "type": "address"
        },
        {
          "internalType": "uint256",
          "name": "amount",
          "type": "uint256"
        },
        {
          "internalType": "string",
          "name": "message",
          "type": "string"
        }
      ],
      "name": "sendWithMemo",
      "outputs": [],
      "stateMutability": "nonpayable",
      "type": "function"
    },
    {
      "inputs": [
        {
          "internalType": "uint256",
          "name": "newFee",
          "type": "uint256"
        }
      ],
      "name": "setMessageFee",
      "outputs": [],
      "stateMutability": "nonpayable",
      "type": "function"
    },
    {
      "inputs": [],
      "name": "symbol",
      "outputs": [
        {
          "internalType": "string",
          "name": "",
          "type": "string"
        }
      ],
      "stateMutability": "view",
      "type": "function"
    },
    {
      "inputs": [],
      "name": "totalSupply",
      "outputs": [
        {
          "internalType": "uint256",
          "name": "",
          "type": "uint256"
        }
      ],
      "stateMutability": "view",
      "type": "function"
    },
    {
      "inputs": [
        {
          "internalType": "address",
          "name": "to",
          "type": "address"
        },
        {
          "internalType": "uint256",
          "name": "value",
          "type": "uint256"
        }
      ],
      "name": "transfer",
      "outputs": [
        {
          "internalType": "bool",
          "name": "",
          "type": "bool"
        }
      ],
      "stateMutability": "nonpayable",
      "type": "function"
    },
    {
      "inputs": [
        {
          "internalType": "address",
          "name": "from",
          "type": "address"
        },
        {
          "internalType": "address",
          "name": "to",
          "type": "address"
        },
        {
          "internalType": "uint256",
          "name": "value",
          "type": "uint256"
        }
      ],
      "name": "transferFrom",
      "outputs": [
        {
          "internalType": "bool",
          "name": "",
          "type": "bool"
        }
      ],
      "stateMutability": "nonpayable",
      "type": "function"
    },
    {
      "inputs": [
        {
          "internalType": "address",
          "name": "newOwner",
          "type": "address"
        }
      ],
      "name": "transferOwnership",
      "outputs": [],
      "stateMutability": "nonpayable",
      "type": "function"
    },
    {
      "inputs": [],
      "name": "unpause",
      "outputs": [],
      "stateMutability": "nonpayable",
      "type": "function"
    },
    {
      "inputs": [
        {
          "internalType": "address",
          "name": "to",
          "type": "address"
        },
        {
          "internalType": "uint256",
          "name": "amount",
          "type": "uint256"
        }
      ],
      "name": "withdrawReserve",
      "outputs": [],
      "stateMutability": "nonpayable",
      "type": "function"
    }
  ],
  "bytecode": "0x608060405267016345785d8a00006006553480156200001d57600080fd5b506040516200295a3803806200295a833981810160405281019062000043919062000675565b806040518060400160405280600681526020017f53756b686f6900000000000000000000000000000000000000000000000000008152506040518060400160405280600381526020017f534b4800000000000000000000000000000000000000000000000000000000008152508160039081620000c1919062000921565b508060049081620000d3919062000921565b505050600073ffffffffffffffffffffffffffffffffffffffff168173ffffffffffffffffffffffffffffffffffffffff16036200014b5760006040517f1e4fbdf700000000000000000000000000000000000000000000000000000000815260040162000142919062000a19565b60405180910390fd5b6200015c81620001de60201b60201c565b506200019a8162000172620002a460201b60201c565b600a62000180919062000bc6565b60fa6200018e919062000c17565b620002ad60201b60201c565b620001d730620001af620002a460201b60201c565b600a620001bd919062000bc6565b60fa620001cb919062000c17565b620002ad60201b60201c565b5062000d08565b6000600560019054906101000a900473ffffffffffffffffffffffffffffffffffffffff16905081600560016101000a81548173ffffffffffffffffffffffffffffffffffffffff021916908373ffffffffffffffffffffffffffffffffffffffff1602179055508173ffffffffffffffffffffffffffffffffffffffff168173ffffffffffffffffffffffffffffffffffffffff167f8be0079c531659141344cd1fd0a4f28419497f9722a3daafe3b4186f6b6457e060405160405180910390a35050565b60006012905090565b600073ffffffffffffffffffffffffffffffffffffffff168273ffffffffffffffffffffffffffffffffffffffff1603620003225760006040517fec442f0500000000000000000000000000000000000000000000000000000000815260040162000319919062000a19565b60405180910390fd5b62000336600083836200033a60201b60201c565b5050565b6200034d8383836200035260201b60201c565b505050565b620003626200037a60201b60201c565b62000375838383620003c460201b60201c565b505050565b6200038a620005f460201b60201c565b15620003c2576040517fd93c066500000000000000000000000000000000000000000000000000000000815260040160405180910390fd5b565b600073ffffffffffffffffffffffffffffffffffffffff168373ffffffffffffffffffffffffffffffffffffffff16036200041a5780600260008282546200040d919062000c62565b92505081905550620004f0565b60008060008573ffffffffffffffffffffffffffffffffffffffff1673ffffffffffffffffffffffffffffffffffffffff16815260200190815260200160002054905081811015620004a9578381836040517fe450d38c000000000000000000000000000000000000000000000000000000008152600401620004a09392919062000cae565b60405180910390fd5b8181036000808673ffffffffffffffffffffffffffffffffffffffff1673ffffffffffffffffffffffffffffffffffffffff16815260200190815260200160002081905550505b600073ffffffffffffffffffffffffffffffffffffffff168273ffffffffffffffffffffffffffffffffffffffff16036200053b578060026000828254039250508190555062000588565b806000808473ffffffffffffffffffffffffffffffffffffffff1673ffffffffffffffffffffffffffffffffffffffff168152602001908152602001600020600082825401925050819055505b8173ffffffffffffffffffffffffffffffffffffffff168373ffffffffffffffffffffffffffffffffffffffff167fddf252ad1be2c89b69c2b068fc378daa952ba7f163c4a11628f55a4df523b3ef83604051620005e7919062000ceb565b60405180910390a3505050565b6000600560009054906101000a900460ff16905090565b600080fd5b600073ffffffffffffffffffffffffffffffffffffffff82169050919050565b60006200063d8262000610565b9050919050565b6200064f8162000630565b81146200065b57600080fd5b50565b6000815190506200066f8162000644565b92915050565b6000602082840312156200068e576200068d6200060b565b5b60006200069e848285016200065e565b91505092915050565b600081519050919050565b7f4e487b7100000000000000000000000000000000000000000000000000000000600052604160045260246000fd5b7f4e487b7100000000000000000000000000000000000000000000000000000000600052602260045260246000fd5b600060028204905060018216806200072957607f821691505b6020821081036200073f576200073e620006e1565b5b50919050565b60008190508160005260206000209050919050565b60006020601f8301049050919050565b600082821b905092915050565b600060088302620007a97fffffffffffffffffffffffffffffffffffffffffffffffffffffffffffffffff826200076a565b620007b586836200076a565b95508019841693508086168417925050509392505050565b6000819050919050565b6000819050919050565b600062000802620007fc620007f684620007cd565b620007d7565b620007cd565b9050919050565b6000819050919050565b6200081e83620007e1565b620008366200082d8262000809565b84845462000777565b825550505050565b600090565b6200084d6200083e565b6200085a81848462000813565b505050565b5b8181101562000882576200087660008262000843565b60018101905062000860565b5050565b601f821115620008d1576200089b8162000745565b620008a6846200075a565b81016020851015620008b6578190505b620008ce620008c5856200075a565b8301826200085f565b50505b505050565b600082821c905092915050565b6000620008f660001984600802620008d6565b1980831691505092915050565b6000620009118383620008e3565b9150826002028217905092915050565b6200092c82620006a7565b67ffffffffffffffff811115620009485762000947620006b2565b5b62000954825462000710565b6200096182828562000886565b600060209050601f83116001811462000999576000841562000984578287015190505b62000990858262000903565b86555062000a00565b601f198416620009a98662000745565b60005b82811015620009d357848901518255600182019150602085019450602081019050620009ac565b86831015620009f35784890151620009ef601f891682620008e3565b8355505b6001600288020188555050505b505050505050565b62000a138162000630565b82525050565b600060208201905062000a30600083018462000a08565b92915050565b7f4e487b7100000000000000000000000000000000000000000000000000000000600052601160045260246000fd5b60008160011c9050919050565b6000808291508390505b600185111562000ac45780860481111562000a9c5762000a9b62000a36565b5b600185161562000aac5780820291505b808102905062000abc8562000a65565b945062000a7c565b94509492505050565b60008262000adf576001905062000bb2565b8162000aef576000905062000bb2565b816001811462000b08576002811462000b135762000b49565b600191505062000bb2565b60ff84111562000b285762000b2762000a36565b5b8360020a91508482111562000b425762000b4162000a36565b5b5062000bb2565b5060208310610133831016604e8410600b841016171562000b835782820a90508381111562000b7d5762000b7c62000a36565b5b62000bb2565b62000b92848484600162000a72565b9250905081840481111562000bac5762000bab62000a36565b5b81810290505b9392505050565b600060ff82169050919050565b600062000bd382620007cd565b915062000be08362000bb9565b925062000c0f7fffffffffffffffffffffffffffffffffffffffffffffffffffffffffffffffff848462000acd565b905092915050565b600062000c2482620007cd565b915062000c3183620007cd565b925082820262000c4181620007cd565b9150828204841483151762000c5b5762000c5a62000a36565b5b5092915050565b600062000c6f82620007cd565b915062000c7c83620007cd565b925082820190508082111562000c975762000c9662000a36565b5b92915050565b62000ca881620007cd565b82525050565b600060608201905062000cc5600083018662000a08565b62000cd4602083018562000c9d565b62000ce3604083018462000c9d565b949350505050565b600060208201905062000d02600083018462000c9d565b92915050565b611c428062000d186000396000f3fe608060405234801561001057600080fd5b50600436106101425760003560e01c80635c975abb116100b85780638456cb591161007c5780638456cb59146103295780638da5cb5b1461033357806395d89b4114610351578063a9059cbb1461036f578063dd62ed3e1461039f578063f2fde38b146103cf57610142565b80635c975abb1461029957806370a08231146102b7578063715018a6146102e757806379cc6790146102f15780637aec706a1461030d57610142565b806323aa2a9d1161010a57806323aa2a9d146101ed57806323b872dd14610209578063313ce567146102395780633f4ba83a1461025757806340c10f191461026157806342966c681461027d57610142565b806306fdde0314610147578063095ea7b31461016557806318160ddd146101955780631a90a219146101b35780631c58ce14146101d1575b600080fd5b61014f6103eb565b60405161015c9190611399565b60405180910390f35b61017f600480360381019061017a9190611459565b61047d565b60405161018c91906114b4565b60405180910390f35b61019d6104a0565b6040516101aa91906114de565b60405180910390f35b6101bb6104aa565b6040516101c891906114de565b60405180910390f35b6101eb60048036038101906101e69190611459565b6104b0565b005b610207600480360381019061020291906114f9565b6104c7565b005b610223600480360381019061021e9190611526565b6104d9565b60405161023091906114b4565b60405180910390f35b610241610508565b60405161024e9190611595565b60405180910390f35b61025f610511565b005b61027b60048036038101906102769190611459565b610523565b005b610297600480360381019061029291906114f9565b6105ae565b005b6102a16105c2565b6040516102ae91906114b4565b60405180910390f35b6102d160048036038101906102cc91906115b0565b6105d9565b6040516102de91906114de565b60405180910390f35b6102ef610621565b005b61030b60048036038101906103069190611459565b610635565b005b61032760048036038101906103229190611642565b610655565b005b6103316107ac565b005b61033b6107be565b60405161034891906116c5565b60405180910390f35b6103596107e8565b6040516103669190611399565b60405180910390f35b61038960048036038101906103849190611459565b61087a565b60405161039691906114b4565b60405180910390f35b6103b960048036038101906103b491906116e0565b61089d565b6040516103c691906114de565b60405180910390f35b6103e960048036038101906103e491906115b0565b610924565b005b6060600380546103fa9061174f565b80601f01602080910402602001604051908101604052809291908181526020018280546104269061174f565b80156104735780601f1061044857610100808354040283529160200191610473565b820191906000526020600020905b81548152906001019060200180831161045657829003601f168201915b5050505050905090565b6000806104886109aa565b90506104958185856109b2565b600191505092915050565b6000600254905090565b60065481565b6104b86109c4565b6104c3308383610a4b565b5050565b6104cf6109c4565b8060068190555050565b6000806104e46109aa565b90506104f1858285610b3f565b6104fc858585610a4b565b60019150509392505050565b60006012905090565b6105196109c4565b610521610bd4565b565b61052b6109c4565b610533610508565b600a61053f91906118e2565b6101f461054c919061192d565b816105556104a0565b61055f919061196f565b11156105a0576040517f08c379a000000000000000000000000000000000000000000000000000000000815260040161059790611a15565b60405180910390fd5b6105aa8282610c37565b5050565b6105bf6105b96109aa565b82610cb9565b50565b6000600560009054906101000a900460ff16905090565b60008060008373ffffffffffffffffffffffffffffffffffffffff1673ffffffffffffffffffffffffffffffffffffffff168152602001908152602001600020549050919050565b6106296109c4565b6106336000610d3b565b565b610647826106416109aa565b83610b3f565b6106518282610cb9565b5050565b600073ffffffffffffffffffffffffffffffffffffffff168473ffffffffffffffffffffffffffffffffffffffff16036106c4576040517f08c379a00000000000000000000000000000000000000000000000000000000081526004016106bb90611aa7565b60405180910390fd5b6000600654846106d4919061196f565b9050806106e0336105d9565b1015610721576040517f08c379a000000000000000000000000000000000000000000000000000000000815260040161071890611b39565b60405180910390fd5b61072d33600654610cb9565b610738338686610a4b565b8473ffffffffffffffffffffffffffffffffffffffff163373ffffffffffffffffffffffffffffffffffffffff167fc24aaa6abc274cce2eba73996dfee19f090701113987113a6196b7fc305f3b4f86868660065460405161079d9493929190611b95565b60405180910390a35050505050565b6107b46109c4565b6107bc610e01565b565b6000600560019054906101000a900473ffffffffffffffffffffffffffffffffffffffff16905090565b6060600480546107f79061174f565b80601f01602080910402602001604051908101604052809291908181526020018280546108239061174f565b80156108705780601f1061084557610100808354040283529160200191610870565b820191906000526020600020905b81548152906001019060200180831161085357829003601f168201915b5050505050905090565b6000806108856109aa565b9050610892818585610a4b565b600191505092915050565b6000600160008473ffffffffffffffffffffffffffffffffffffffff1673ffffffffffffffffffffffffffffffffffffffff16815260200190815260200160002060008373ffffffffffffffffffffffffffffffffffffffff1673ffffffffffffffffffffffffffffffffffffffff16815260200190815260200160002054905092915050565b61092c6109c4565b600073ffffffffffffffffffffffffffffffffffffffff168173ffffffffffffffffffffffffffffffffffffffff160361099e5760006040517f1e4fbdf700000000000000000000000000000000000000000000000000000000815260040161099591906116c5565b60405180910390fd5b6109a781610d3b565b50565b600033905090565b6109bf8383836001610e64565b505050565b6109cc6109aa565b73ffffffffffffffffffffffffffffffffffffffff166109ea6107be565b73ffffffffffffffffffffffffffffffffffffffff1614610a4957610a0d6109aa565b6040517f118cdaa7000000000000000000000000000000000000000000000000000000008152600401610a4091906116c5565b60405180910390fd5b565b600073ffffffffffffffffffffffffffffffffffffffff168373ffffffffffffffffffffffffffffffffffffffff1603610abd5760006040517f96c6fd1e000000000000000000000000000000000000000000000000000000008152600401610ab491906116c5565b60405180910390fd5b600073ffffffffffffffffffffffffffffffffffffffff168273ffffffffffffffffffffffffffffffffffffffff1603610b2f5760006040517fec442f05000000000000000000000000000000000000000000000000000000008152600401610b2691906116c5565b60405180910390fd5b610b3a83838361103b565b505050565b6000610b4b848461089d565b90507fffffffffffffffffffffffffffffffffffffffffffffffffffffffffffffffff811015610bce5781811015610bbe578281836040517ffb8f41b2000000000000000000000000000000000000000000000000000000008152600401610bb593929190611bd5565b60405180910390fd5b610bcd84848484036000610e64565b5b50505050565b610bdc61104b565b6000600560006101000a81548160ff0219169083151502179055507f5db9ee0a495bf2e6ff9c91a7834c1ba4fdd244a5e8aa4e537bd38aeae4b073aa610c206109aa565b604051610c2d91906116c5565b60405180910390a1565b600073ffffffffffffffffffffffffffffffffffffffff168273ffffffffffffffffffffffffffffffffffffffff1603610ca95760006040517fec442f05000000000000000000000000000000000000000000000000000000008152600401610ca091906116c5565b60405180910390fd5b610cb56000838361103b565b5050565b600073ffffffffffffffffffffffffffffffffffffffff168273ffffffffffffffffffffffffffffffffffffffff1603610d2b5760006040517f96c6fd1e000000000000000000000000000000000000000000000000000000008152600401610d2291906116c5565b60405180910390fd5b610d378260008361103b565b5050565b6000600560019054906101000a900473ffffffffffffffffffffffffffffffffffffffff16905081600560016101000a81548173ffffffffffffffffffffffffffffffffffffffff021916908373ffffffffffffffffffffffffffffffffffffffff1602179055508173ffffffffffffffffffffffffffffffffffffffff168173ffffffffffffffffffffffffffffffffffffffff167f8be0079c531659141344cd1fd0a4f28419497f9722a3daafe3b4186f6b6457e060405160405180910390a35050565b610e0961108b565b6001600560006101000a81548160ff0219169083151502179055507f62e78cea01bee320cd4e420270b5ea74000d11b0c9f74754ebdbfc544b05a258610e4d6109aa565b604051610e5a91906116c5565b60405180910390a1565b600073ffffffffffffffffffffffffffffffffffffffff168473ffffffffffffffffffffffffffffffffffffffff1603610ed65760006040517fe602df05000000000000000000000000000000000000000000000000000000008152600401610ecd91906116c5565b60405180910390fd5b600073ffffffffffffffffffffffffffffffffffffffff168373ffffffffffffffffffffffffffffffffffffffff1603610f485760006040517f94280d62000000000000000000000000000000000000000000000000000000008152600401610f3f91906116c5565b60405180910390fd5b81600160008673ffffffffffffffffffffffffffffffffffffffff1673ffffffffffffffffffffffffffffffffffffffff16815260200190815260200160002060008573ffffffffffffffffffffffffffffffffffffffff1673ffffffffffffffffffffffffffffffffffffffff168152602001908152602001600020819055508015611035578273ffffffffffffffffffffffffffffffffffffffff168473ffffffffffffffffffffffffffffffffffffffff167f8c5be1e5ebec7d5bd14f71427d1e84f3dd0314c0f7b2291e5b200ac8c7c3b9258460405161102c91906114de565b60405180910390a35b50505050565b6110468383836110cc565b505050565b6110536105c2565b611089576040517f8dfc202b00000000000000000000000000000000000000000000000000000000815260040160405180910390fd5b565b6110936105c2565b156110ca576040517fd93c066500000000000000000000000000000000000000000000000000000000815260040160405180910390fd5b565b6110d461108b565b6110df8383836110e4565b505050565b600073ffffffffffffffffffffffffffffffffffffffff168373ffffffffffffffffffffffffffffffffffffffff160361113657806002600082825461112a919061196f565b92505081905550611209565b60008060008573ffffffffffffffffffffffffffffffffffffffff1673ffffffffffffffffffffffffffffffffffffffff168152602001908152602001600020549050818110156111c2578381836040517fe450d38c0000000000000000000000000000000000000000000000000000000081526004016111b993929190611bd5565b60405180910390fd5b8181036000808673ffffffffffffffffffffffffffffffffffffffff1673ffffffffffffffffffffffffffffffffffffffff16815260200190815260200160002081905550505b600073ffffffffffffffffffffffffffffffffffffffff168273ffffffffffffffffffffffffffffffffffffffff1603611252578060026000828254039250508190555061129f565b806000808473ffffffffffffffffffffffffffffffffffffffff1673ffffffffffffffffffffffffffffffffffffffff168152602001908152602001600020600082825401925050819055505b8173ffffffffffffffffffffffffffffffffffffffff168373ffffffffffffffffffffffffffffffffffffffff167fddf252ad1be2c89b69c2b068fc378daa952ba7f163c4a11628f55a4df523b3ef836040516112fc91906114de565b60405180910390a3505050565b600081519050919050565b600082825260208201905092915050565b60005b83811015611343578082015181840152602081019050611328565b60008484015250505050565b6000601f19601f8301169050919050565b600061136b82611309565b6113758185611314565b9350611385818560208601611325565b61138e8161134f565b840191505092915050565b600060208201905081810360008301526113b38184611360565b905092915050565b600080fd5b600080fd5b600073ffffffffffffffffffffffffffffffffffffffff82169050919050565b60006113f0826113c5565b9050919050565b611400816113e5565b811461140b57600080fd5b50565b60008135905061141d816113f7565b92915050565b6000819050919050565b61143681611423565b811461144157600080fd5b50565b6000813590506114538161142d565b92915050565b600080604083850312156114705761146f6113bb565b5b600061147e8582860161140e565b925050602061148f85828601611444565b9150509250929050565b60008115159050919050565b6114ae81611499565b82525050565b60006020820190506114c960008301846114a5565b92915050565b6114d881611423565b82525050565b60006020820190506114f360008301846114cf565b92915050565b60006020828403121561150f5761150e6113bb565b5b600061151d84828501611444565b91505092915050565b60008060006060848603121561153f5761153e6113bb565b5b600061154d8682870161140e565b935050602061155e8682870161140e565b925050604061156f86828701611444565b9150509250925092565b600060ff82169050919050565b61158f81611579565b82525050565b60006020820190506115aa6000830184611586565b92915050565b6000602082840312156115c6576115c56113bb565b5b60006115d48482850161140e565b91505092915050565b600080fd5b600080fd5b600080fd5b60008083601f840112611602576116016115dd565b5b8235905067ffffffffffffffff81111561161f5761161e6115e2565b5b60208301915083600182028301111561163b5761163a6115e7565b5b9250929050565b6000806000806060858703121561165c5761165b6113bb565b5b600061166a8782880161140e565b945050602061167b87828801611444565b935050604085013567ffffffffffffffff81111561169c5761169b6113c0565b5b6116a8878288016115ec565b925092505092959194509250565b6116bf816113e5565b82525050565b60006020820190506116da60008301846116b6565b92915050565b600080604083850312156116f7576116f66113bb565b5b60006117058582860161140e565b92505060206117168582860161140e565b9150509250929050565b7f4e487b7100000000000000000000000000000000000000000000000000000000600052602260045260246000fd5b6000600282049050600182168061176757607f821691505b60208210810361177a57611779611720565b5b50919050565b7f4e487b7100000000000000000000000000000000000000000000000000000000600052601160045260246000fd5b60008160011c9050919050565b6000808291508390505b6001851115611806578086048111156117e2576117e1611780565b5b60018516156117f15780820291505b80810290506117ff856117af565b94506117c6565b94509492505050565b60008261181f57600190506118db565b8161182d57600090506118db565b8160018114611843576002811461184d5761187c565b60019150506118db565b60ff84111561185f5761185e611780565b5b8360020a91508482111561187657611875611780565b5b506118db565b5060208310610133831016604e8410600b84101617156118b15782820a9050838111156118ac576118ab611780565b5b6118db565b6118be84848460016117bc565b925090508184048111156118d5576118d4611780565b5b81810290505b9392505050565b60006118ed82611423565b91506118f883611579565b92506119257fffffffffffffffffffffffffffffffffffffffffffffffffffffffffffffffff848461180f565b905092915050565b600061193882611423565b915061194383611423565b925082820261195181611423565b9150828204841483151761196857611967611780565b5b5092915050565b600061197a82611423565b915061198583611423565b925082820190508082111561199d5761199c611780565b5b92915050565b7f53756b686f69546f6b656e3a20746f74616c20737570706c79206c696d69742060008201527f657863656564656420286d61782035303020534b482900000000000000000000602082015250565b60006119ff603683611314565b9150611a0a826119a3565b604082019050919050565b60006020820190508181036000830152611a2e816119f2565b9050919050565b7f45524332303a207472616e7366657220746f20746865207a65726f206164647260008201527f6573730000000000000000000000000000000000000000000000000000000000602082015250565b6000611a91602383611314565b9150611a9c82611a35565b604082019050919050565b60006020820190508181036000830152611ac081611a84565b9050919050565b7f53756b686f69546f6b656e3a20696e73756666696369656e742062616c616e6360008201527f6520666f72207472616e7366657220616e64206d657373616765206665650000602082015250565b6000611b23603e83611314565b9150611b2e82611ac7565b604082019050919050565b60006020820190508181036000830152611b5281611b16565b9050919050565b82818337600083830152505050565b6000611b748385611314565b9350611b81838584611b59565b611b8a8361134f565b840190509392505050565b6000606082019050611baa60008301876114cf565b8181036020830152611bbd818587611b68565b9050611bcc60408301846114cf565b95945050505050565b6000606082019050611bea60008301866116b6565b611bf760208301856114cf565b611c0460408301846114cf565b94935050505056fea2646970667358221220f957cf25537ad0b6dada9f178174914d027ea3622a9d1ecc52f762e9810f6a7264736f6c63430008180033",
  "linkReferences": {},
  "deployedLinkReferences": {}
}